:100000005AEF01F00000000000EF00F000000000D7
:0A0010000000000000000000F3D71C
:10001C000F0E0C6E470E0D6E0D2EFED70C2EFCD750
:06002C00000000001200BC
:0A003200210E0D6E0D2EFED71200F8
:06003C00000000001200AC
:100042003CBE02D08A9601D08A863CBC02D08A94F9
:1000520001D08A843CBA02D08A9201D08A823CB80A
:1000620002D08A9001D08A8033B002D08A8801D02F
:100072008A988A8AE2DF8A9A3CB602D08A9601D0AE
:100082008A863CB402D08A9401D08A843CB202D0DF
:100092008A9201D08A823CB002D08A9001D08A80B2
:1000A20033B002D08A8801D08A988A8AC6DF8A9AB7
:0C00B20033A002D0B2DF01D0BBDF12008F
:1000BE000FD0800E396E19D0C00E396E16D0940E38
:1000CE00396E13D0D40E396E10D0800E396E0DD01D
:1000DE003950010AEEE03950020AEEE03950030AB7
:1000EE00EEE03950040AEEE0F0D73A04006E3950D3
:1000FE00002600C039F0338000C03CF09BDF339007
:0A010E003BC03CF097DF3380120085
:0C011800339039C03CF091DF33801200BE
:10012400356A100E355C0EE234C03CF088DFB60E42
:100134000C6ED00E0D6E0D2EFED70C2EFCD70000CB
:06014400352AEFD712007E
:10014A000900F5CFE6FF0006FBE10106F9E112001E
:06015A000F0EC11212009D
:10016000939A939893909392939493968A9A8A9859
:100170008A968A948A928A9051DF50DF4FDF8A8272
:100180008A808A8A5BDF8A9A49DF8A8A57DF8A9A5D
:1001900045DF8A8A53DF8A9A41DF8A908A8A4EDF56
:1001A0008A9A3CDF8A8A4ADF8A9A8A928A868A8A6F
:1001B00045DF8A9A33DF8A968A808A8A3FDF8A9A65
:1001C0008A908A8A3BDF8A9A29DF8A8A37DF8A9A6D
:1001D0008A808A8A33DF8A9A21DF8A908A8A2EDF90
:1001E0008A9A8A868A848A828A808A8A27DF8A9A79
:0601F00015DF3380120050
:1001F600400E3C6E23DF366A3650070811E3220EA6
:100206003624F66E030EF76E000EF722000EF86E19
:10021600000EF8220900F5CF39F07BDF362AECD73D
:10022600020E3C6E0BDF34C039F035C03AF03B6A43
:0402360043DF120090
:10023A000FD0800E346E19D0C00E346E16D0940EC4
:10024A00346E13D0D40E346E10D0800E346E0DD0AE
:10025A003450010AEEE03450020AEEE03450030A48
:10026A00EEE03450040AEEE0F0D73504006E345064
:10027A00002600C034F000C03CF0DEDE3390386A5D
:10028A0038503624E96E000E3720EA6EEE520BE043
:10029A0038503624E96E000E3720EA6EEECF39F078
:0A02AA0036DF382AEDD7338012004A
:1002B40095EC01F050DF52DF010E3C6EC0DE0C0EF7
:1002C4003C6EBDDE010E346E010E356E150E366EBB
:1002D400000E376EB0DF020E346E010E356E280E3E
:1002E400366E000E376EA7DF1C0E346E19DF180E43
:1002F400346E16DF020E346E0C0E356E7ADFFFD7C5
:10032A0010EE15F01E0E006E010E016E040EF66E32
:0E033A00030EF76E000EF86EA5EC00F0120038
:100304004D415243454C4F205249424549524F209A
:030314004445005D
:0B031700534F555341204C494D41000D
:080322000A000E1111110E007A
:020000040030CA
:0D000100231F3CFFBD81FF0FC00FE00F402B
:00000001FF
