:10000000F8EF00F00000000000EF00F0000000003A
:0A0010000000000000000000F3D71C
:06001C00000000001200CC
:100022000F0E0C6E470E0D6E0D2EFED70C2EFCD74A
:06003200000000001200B6
:0A003800210E0D6E0D2EFED71200F2
:1000420034BE02D08A9601D08A8634BC02D08A9409
:1000520001D08A8434BA02D08A9201D08A8234B81A
:1000620002D08A9001D08A802DB002D08A8801D035
:100072008A988A8AD2DF8A9A34B602D08A9601D0C6
:100082008A8634B402D08A9401D08A8434B202D0EF
:100092008A9201D08A8234B002D08A9001D08A80BA
:1000A2002DB002D08A8801D08A988A8AB6DF8A9ACD
:0C00B2002DA002D0B5DF01D0BEDF12008F
:0C00BE002D9033C034F0BEDF2D80120006
:0600CA000F0EC11212002E
:1000D0000900F5CFE6FF0006FBE10106F9E1120099
:1000E0000FD0800E2E6E19D0C00E2E6E16D0940E2C
:1000F0002E6E13D0D40E2E6E10D0800E2E6E0DD01C
:100100002E50010AEEE02E50020AEEE02E50030AB5
:10011000EEE02E50040AEEE0F0D72F04006E2E50D1
:10012000002600C02EF000C034F08BDF2D90326A24
:1001300032503024E96E000E3120EA6EEE520BE0B0
:1001400032503024E96E000E3120EA6EEECF33F0EB
:0A015000B6DF322AEDD72D80120031
:10015A00939A939893909392939493968A9A8A985F
:10016A008A968A948A928A9057DF56DF55DF8A8266
:10017A008A808A8A4EDF8A9A4FDF8A8A4ADF8A9A77
:10018A004BDF8A8A46DF8A9A47DF8A908A8A41DF6A
:10019A008A9A42DF8A8A3DDF8A9A8A928A868A8A7C
:1001AA0038DF8A9A39DF8A968A808A8A32DF8A9A7F
:1001BA008A908A8A2EDF8A9A2FDF8A8A2ADF8A9A87
:1001CA008A808A8A26DF8A9A27DF8A908A8A21DFAA
:1001DA008A9A8A868A848A828A808A8A1ADF8A9A8C
:0601EA001BDF2D80120056
:1001F00021EC01F06ADFB1DF010E346E22DF0C0E5C
:10020000346E1FDF010E2E6E010E2F6E150E306E36
:10021000000E316E65DF020E2E6E010E2F6E210E66
:0A022000306E000E316E5CDFFFD778
:1002420010EE15F0180E006E010E016E2A0EF66EFB
:0E025200020EF76E000EF86E68EC00F012005F
:0C022A00464952535420204C494E4500D8
:0C0236005345434F4E44204C494E4500B8
:020000040030CA
:0D000100231F3CFFBD81FF0FC00FE00F402B
:00000001FF
