:1000000030EF00F00000000000EF00F00000000002
:0A0010000000000000000000F3D71C
:10001C000BD0838016D0838214D0838412D0838635
:10002C0010D0836A156A0DD01750010AF2E01750F0
:10003C00020AF1E01750030AF0E01750040AEFE04F
:04004C00F0D71200D7
:100050000900F5CFE6FF0006FBE10106F9E1120019
:10006000156A166A0F01396B3B6B93808190956A14
:10007000836A81A015D01650000A12E1152A15C016
:1000800017F0CCDF030E0B6E3C0E0C6E690E0D6E7E
:100090000D2EFED70C2EFCD70B2EFAD70000000039
:1000A00081B011D01650010A0EE1030E0B6E3C0E0A
:1000B0000C6E690E0D6E0D2EFED70C2EFCD70B2E7E
:0A00C000FAD700000000D5D7FFD7E3
:020000040030CA
:0D000100231F3CFFBD81FF0FC00FE00F402B
:00000001FF
