:100000001AEF00F00000000000EF00F00000000018
:0A0010000000000000000000F3D71C
:10001C000F0EC1129380819093828192956A836AAC
:08002C00946A8290829C12008C
:10003400156A010E166E000E176EEEDF81A021D038
:100044001550000A1EE18C50000A03E116C083FF1C
:1000540006D016C000F00036009000C083FF010EE9
:10006400156E8280829C060E0B6E130E0C6EAD0E06
:100074000D6E0D2EFED70C2EFCD70B2EFAD70000DA
:10008400000081B014D01550010A11E1156A829064
:10009400828C060E0B6E130E0C6EAD0E0D6E0D2EB5
:1000A400FED70C2EFCD70B2EFAD700000000C6D7C3
:0200B400FFD774
:020000040030CA
:0D000100231F3CFFBD81FF0FC00FE00F402B
:00000001FF
