:1000000058EF01F00000000000EF00F000000000D9
:0A0010000000000000000000F3D71C
:0A001C00210E0D6E0D2EFED712000E
:100026000F0E0C6E470E0D6E0D2EFED70C2EFCD746
:06003600000000001200B2
:06003C00000000001200AC
:100042002DBE02D08A9601D08A862DBC02D08A9417
:1000520001D08A842DBA02D08A9201D08A822DB828
:1000620002D08A9001D08A801AB002D08A8801D048
:100072008A988A8AE2DF8A9A2DB602D08A9601D0BD
:100082008A862DB402D08A9401D08A842DB202D0FD
:100092008A9201D08A822DB002D08A9001D08A80C1
:1000A2001AB002D08A8801D08A988A8AC6DF8A9AD0
:0C00B2001AA002D0B7DF01D0B0DF1200AE
:1000BE00086A096A100E0C6E0134083609360450AF
:1000CE00085E0550D8A0053C095ED8B007D0045094
:1000DE0008260550D8B0053C0926D89000360136C2
:0600EE000C2EEAD71200FF
:0C00F4001A902CC02DF0A3DF1A8012001F
:10010000939A939893909392939493968A9A8A98B9
:100110008A968A948A928A9086DF85DF84DF8A8233
:100120008A808A8A8BDF8A9A7EDF8A8A87DF8A9A28
:100130007ADF8A8A83DF8A9A76DF8A908A8A7EDFEC
:100140008A9A71DF8A8A7ADF8A9A8A928A868A8A6A
:1001500075DF8A9A68DF8A968A808A8A6FDF8A9A30
:100160008A908A8A6BDF8A9A5EDF8A8A67DF8A9A38
:100170008A808A8A63DF8A9A56DF8A908A8A5EDF5B
:100180008A9A8A868A848A828A808A8A57DF8A9AA9
:060190004ADF1A80120094
:100196000900F5CFE6FF0006FBE10106F9E11200D2
:1001A600296A050E295C0AE229502724E16E000E11
:1001B6002820E26E200EE66E292AF3D7295027243E
:1001C600E16E000E2820E26EE66A290629502724F1
:1001D6002A6E000E28202B6E0A0E046E000E056E87
:1001E60025C000F026C001F067DF08C000F009C096
:1001F60001F0300E00262AC0E1FF2BC0E2FF00C04E
:10020600E6FF0A0E046E000E056E25C000F026C03D
:1002160001F052DF00C025F001C026F0000E0118E3
:1002260002E1000E001801E102D02906CFD7120024
:100236000FD0800E256E19D0C00E256E16D0940EE6
:10024600256E13D0D40E256E10D0800E256E0DD0DF
:100256002550010AEEE02550020AEEE02550030A79
:10026600EEE02550040AEEE0F0D72604006E255095
:10027600002600C025F000C02DF0E0DE1A90296AA5
:1002860029502724E96E000E2820EA6EEE520BE074
:1002960029502724E96E000E2820EA6EEECF2CF0B6
:0A02A60026DF292AEDD71A80120086
:1002B000410E156E440E166E430E176E3A0E186EF2
:1002C000196A92808080010EC26E0E0EC16EAA0E57
:1002D000C06E16DF010E2D6EB4DE0C0E2D6EB1DE7B
:1002E000010E256E010E266E150E276E000E286E6D
:1002F000A2DFC282C2A201D0FDD7C4CF26F0256AF8
:10030000C3502512000E26121B0E276E000E286EFB
:100310004ADF010E256E050E266E1B0E276E000E9F
:10032000286E89DF340E0C6EF10E0D6E0D2EFED789
:0C0330000C2EFCD700000000DCD7FFD72B
:020000040030CA
:0D000100231F3CFFBD81FF0FC00FE00F402B
:00000001FF
