:1000000064EF01F00000000000EF00F000000000CD
:0A0010000000000000000000F3D71C
:10001C000F0E0C6E470E0D6E0D2EFED70C2EFCD750
:06002C00000000001200BC
:06003200000000001200B6
:0A003800210E0D6E0D2EFED71200F2
:1000420000016ABF02D08A9601D08A866ABD02D0B8
:100052008A9401D08A846ABB02D08A9201D08A82B1
:100062006AB902D08A9001D08A805BB002D08A88B5
:1000720001D08A988A8ADCDF8A9A6AB702D08A9685
:1000820001D08A866AB502D08A9401D08A846AB382
:1000920002D08A9201D08A826AB102D08A9001D0BB
:1000A2008A805BB002D08A8801D08A988A8AC0DFAF
:0E00B2008A9A5BA002D0B1DF01D0BDDF120040
:0C00C0005B9060C06AF0BDDF5B80120046
:1000CC00020E0C6E490E0D6E0D2EFED70C2EFCD7AB
:0600DC000000000012000C
:1000E20010D0800E0001666F1AD0C00E666F17D056
:1000F200940E666F14D0D40E666F11D0800E666FA8
:100102000ED000016651010AECE06651020AEDE0F0
:100112006651030AEDE06651040AEDE0EFD7670588
:10012200006E6651002600C066F000C06AF088DFEB
:100132005B905F6A5F506825E96E000E6921EA6E86
:10014200EE520BE05F506825E96E000E6921EA6EFF
:0E015200EECF60F0B4DF5F2AEDD75B801200C5
:100160000F01396B3B6B9580838095828382958EDE
:04017000838E120068
:100174000900F5CFE6FF0006FBE10106F9E11200F4
:10018400939A939893909392939493968A9A8A9835
:100194008A968A948A928A903FDF3EDF3DDF8A8284
:1001A4008A808A8A44DF8A9A37DF8A8A40DF8A9A79
:1001B40033DF8A8A3CDF8A9A2FDF8A908A8A37DF84
:1001C4008A9A2ADF8A8A33DF8A9A8A928A868A8A74
:1001D4002EDF8A9A21DF8A968A808A8A28DF8A9A81
:1001E4008A908A8A24DF8A9A17DF8A8A20DF8A9A89
:1001F4008A808A8A1CDF8A9A0FDF8A908A8A17DFAC
:100204008A9A8A868A848A828A808A8A10DF8A9A6B
:0602140003DF5B80120015
:10021A005E6A63C001F0010E006E015004E0003610
:10022A000090FF0FFBD700C05DF061C0E9FF62C01C
:10023A00EAFF0050EE14016E0152010ED8A4000E1E
:10024A00006E00016551001A18E06451000804E2CA
:10025A0038DF37DF6407F9D761C0E9FF62C0EAFF18
:10026A005D50EE14016E0152010ED8A4000E006E0C
:10027A006551001A02E0FF0E5E6E5EC000F01200C9
:10028A00010E00016A6FD8DE0C0E6A6FD5DE010E10
:10029A00666F010E676F1B0E686F000E696F1CDFB9
:1002AA00020E666F030E676F250E686F000E696F88
:0E02BA0013DF5DC0E1FF5EC0E2FFE66A1200E6
:1002C8000CEC02F05C6A48DF59DF5C0E5D6E000ED4
:1002D8005E6ED7DF830E616F0F0E626F636B320E37
:1002E800646F656B96DF00522FE05C52010ED8A454
:1002F800000E006E00C05CF0005213E1010E666F44
:10030800010E676F2D0E686F000E696FE6DE020E34
:10031800666F010E676F150E686F000E696FDDDE80
:1003280012D0020E666F010E676F170E686F000E0F
:10033800696FD3DE010E666F010E676F190E686F65
:10034800000E696FCADE3FD0830E616F0F0E626FB9
:10035800010E636F320E646F656B5BDF005222E043
:10036800010E6A6F6ADE020E666F010E676F400E3D
:10037800686F000E696FB1DE5C520AE0010E666FAD
:10038800030E676F4A0E686F000E696FA6DE09D00C
:10039800010E666F030E676F2F0E686F000E696F90
:1003A8009CDE11D0830E616F0F0E626F070E636FB4
:1003B800320E646F656B2DDF005205E05C0E5D6EDA
:0A03C800000E5E6E5EDF86D7FFD7E1
:1004180010EE15F0460E006E010E016ED20EF66E4D
:0E042800030EF76E000EF86EBAEC00F0120034
:0203D200200009
:0203D4003E00E9
:0203D600200005
:0A03D8003E206F7063616F2031005A
:0803E2006F7063616F203200AF
:0203EA003E00D3
:1003EC004F7063616F20312073656C656374656455
:0103FC000000
:0A03FD003E205265746F726E6F00AF
:100407004F7063616F20322073656C656374656438
:0104170000E4
:020000040030CA
:0D000100231F3CFFBD81FF0FC00FE00F402B
:00000001FF
