:100000002EEF04F00000000000EF00F00000000000
:0A0010000000000000000000F3D71C
:0A001C00210E0D6E0D2EFED712000E
:100026000F0E0C6E470E0D6E0D2EFED70C2EFCD746
:06003600000000001200B2
:06003C00000000001200AC
:1000420055BE02D08A9601D08A8655BC02D08A94C7
:1000520001D08A8455BA02D08A9201D08A8255B8D8
:1000620002D08A9001D08A802BB002D08A8801D037
:100072008A988A8AE2DF8A9A55B602D08A9601D095
:100082008A8655B402D08A9401D08A8455B202D0AD
:100092008A9201D08A8255B002D08A9001D08A8099
:1000A2002BB002D08A8801D08A988A8AC6DF8A9ABF
:0C00B2002BA002D0B7DF01D0B0DF12009D
:1000BE000B1E0A1E091E081E082AD8B4092AD8B417
:0800CE000A2AD8B40B2A120023
:1000D6000450085E0550D8A0053C095E0650D8A01D
:1000E600063C0A5E0750D8A0073C0B5E0336070E97
:1000F6000C6E0334083609360A360B36045003A054
:100106000ED0085E0550D8A0053C095E0650D8A062
:10011600063C0A5E0750D8A0073C0B5E0DD00826A9
:100126000550D8B0053C09260650D8B0063C0A262C
:100136000750D8B0073C0B2603360C2EDAD702340C
:10014600083609360A360B36045003A00ED0085E70
:100156000550D8A0053C095E0650D8A0063C0A5EAC
:100166000750D8A0073C0B5E0DD008260550D8B026
:10017600053C09260650D8B0063C0A260750D8B0DA
:10018600073C0B260236070E0C6E0234083609367B
:100196000A360B36045002A00ED0085E0550D8A0D1
:1001A600053C095E0650D8A0063C0A5E0750D8A05A
:1001B600073C0B5E0DD008260550D8B0053C092635
:1001C6000650D8B0063C0A260750D8B0073C0B2686
:1001D60002360C2EDAD70134083609360A360B36C3
:1001E600045002A00ED0085E0550D8A0053C095E5A
:1001F6000650D8A0063C0A5E0750D8A0073C0B5E06
:100206000DD008260550D8B0053C09260650D8B0B2
:10021600063C0A260750D8B0073C0B260136070EC7
:100226000C6E0134083609360A360B36045001A026
:100236000ED0085E0550D8A0053C095E0650D8A031
:10024600063C0A5E0750D8A0073C0B5E0DD0082678
:100256000550D8B0053C09260650D8B0063C0A26FB
:100266000750D8B0073C0B2601360C2EDAD70034DF
:10027600083609360A360B36045001A00ED0085E41
:100286000550D8A0053C095E0650D8A0063C0A5E7B
:100296000750D8A0073C0B5E0DD008260550D8B0F5
:1002A600053C09260650D8B0063C0A260750D8B0A9
:1002B600073C0B260036070E0C6E0034083609364E
:1002C6000A360B36045000A00ED0085E0550D8A0A2
:1002D600053C095E0650D8A0063C0A5E0750D8A029
:1002E600073C0B5E0DD008260550D8B0053C092604
:1002F6000650D8B0063C0A260750D8B0073C0B2655
:1003060000360C2EDAD700B00ED004500826055061
:10031600D8B0053C09260650D8B0063C0A26075038
:08032600D8B0073C0B261200C1
:0C032E002B9054C055F086DE2B8012008E
:10033A00220E0C6E086A096A0A6A0B6A0C06D8B49D
:10034A001FD0D8900B320A320932083203320232F5
:10035A0001320032D8A0F2D70C06D8B409D0045022
:10036A0008260550092206500A2207500B22EAD70E
:10037A00045008260550092206500A2207500B226B
:02038A0012005F
:10038C000450000A12E10550000A0FE10650000A61
:10039C000CE10750000A09E1FF0E006EFF0E016E22
:1003AC00FF0E026E7F0E036E97D00C6A07BE0C2AEE
:1003BC000D6A0B6A0A6A096A086A03500210011076
:1003CC000010D8B484D0035007180E6E0EBE0D1E4C
:1003DC0007AE0BD0041E051E061E071E042AD8B439
:1003EC00052AD8B4062AD8B4072A03AE0BD0001EAF
:1003FC00011E021E031E002AD8B4012AD8B4022AF8
:10040C00D8B4032A035007100E6E0EBE1CD05DDE4E
:10041C000CBE36D00DAE5BD0001E011E021E031E9C
:10042C00002AD8B4012AD8B4022AD8B4032A081E48
:10043C00091E0A1E0B1E082AD8B4092AD8B40A2A87
:10044C00D8B40B2A44D007AE15D003BE0DD0035040
:10045C000B6E02500A6E0150096E0050086E036A52
:10046C00026A016A006AD6D7036A026A016A006AE4
:10047C00002A000C031E021E011E001E0C8EC7D784
:10048C00082AD8B4092AD8B40A2AD8B40B2A04509A
:10049C00085CD8A4BFD70550095CD8A4BBD70650BC
:1004AC000A5CD8A4B7D707500B5CD8A4B3D70B6A97
:1004BC000A6A096A086A002AD8B4012AD8B4022A3E
:1004CC00D8B4032A03AEA6D70E6A0E88FF0C0E6AA8
:0A04DC000CA001D0EEDD000F1200AD
:1004E6004050000A03E1010EC26E05D04050010AD9
:1004F60002E1390EC26EC282C2A201D0FDD7C4CFBC
:0E05060001F0006AC3500012000E0112120034
:10051400939A939893909392939493968A9A8A98A1
:100524008A968A948A928A907CDD7BDD7ADD8A823F
:100534008A808A8A81DD8A9A74DD8A8A7DDD8A9A34
:1005440070DD8A8A79DD8A9A6CDD8A908A8A74DD04
:100554008A9A67DD8A8A70DD8A9A8A928A868A8A6A
:100564006BDD8A9A5EDD8A968A808A8A65DD8A9A3C
:100574008A908A8A61DD8A9A54DD8A8A5DDD8A9A44
:100584008A808A8A59DD8A9A4CDD8A908A8A54DD67
:100594008A9A8A868A848A828A808A8A4DDD8A9A9D
:0605A40040DD2B80120077
:1005AA000FD0800E406E19D0C00E406E16D0940E39
:1005BA00406E13D0D40E406E10D0800E406E0DD017
:1005CA004050010AEEE04050020AEEE04050030AB1
:1005DA00EEE04050040AEEE0F0D74104006E4050CD
:1005EA00002600C040F000C055F026DD2B90446A7A
:1005FA0044504224E96E000E4320EA6EEE520BE0AC
:10060A0044504224E96E000E4320EA6EEECF54F0C5
:0A061A0089DE442AEDD72B80120080
:1006240040C004F041C005F042C006F043C007F0EA
:100634004450045E4550055A4650065A4750075ADE
:1006440050C000F051C001F052C002F053C003F09A
:100654004C50005E4D50015A4E50025A4F50035AAE
:100664006ADE48C004F049C005F04AC006F04BC039
:1006740007F04450045E4550055A4650065A475008
:10068400075A82DE4C5000264D5001224E50022261
:060694004F50032212008A
:10069A00086A096A100E0C6E0134083609360450CD
:1006AA00085E0550D8A0053C095ED8B007D00450B2
:1006BA0008260550D8B0053C0926D89000360136E0
:0606CA000C2EEAD712001D
:1006D0000900F5CFE6FF0006FBE10106F9E1120093
:1006E0000F0138813A85396B9280808094848284AE
:0A06F0000E0EC16EAA0EC06E1200BD
:1006FA000CDF010E556EA0DC0C0E556E9DDC010E52
:10070A00406E010E416E1F0E426E000E436E48DFB0
:10071A00020E406E010E416E150E426E000E436EC1
:10072A003FDF010E406E0F0E416E290E426E000E23
:06073A00436E36DF1200E1
:100740003D6A050E3D5C0AE23D503B24E16E000E21
:100750003C20E26E200EE66E3D2AF3D73D503B244E
:10076000E16E000E3C20E26EE66A3D063D503B2401
:100770003E6E000E3C203F6E0A0E046E000E056EAB
:1007800039C000F03AC001F088DF08C000F009C0AD
:1007900001F0300E00263EC0E1FF3FC0E2FF00C086
:1007A000E6FF0A0E046E000E056E39C000F03AC076
:1007B00001F073DF00C039F001C03AF0000E0118FB
:1007C00002E1000E001801E102D03D06CFD7120071
:1007D00039C040F088DE00C03AF001C03BF039502B
:1007E000000A1EE13AC040F03BC041F0000E426EEC
:1007F000436E446A456A466A476AFF0E486E030EB6
:10080000496E000E4A6E4B6E4C6A4D6A4E6A4F6AD4
:10081000640E506E000E516E526E536E03DF1DD08B
:100820003AC040F03BC041F0000E426E436E446A55
:10083000456A466A476AFF0E486E030E496E000E0F
:100840004A6E4B6E4C6A4D6A4E6A4F6AFF0E506E8E
:0C085000000E516E526E536EE5DE120079
:10085C006CEC04F0386A3EDF4ADF38C039F0B2DFA6
:10086C0000C039F001C03AF02D0E3B6E000E3C6E0C
:10087C0061DF3850000A03E1010E2C6E02D0020E2B
:10088C002C6E2CC040F00A0E416E2D0E426E000EE6
:10089C00436E85DE340E0C6EF10E0D6E0D2EFED7F2
:1008AC000C2EFCD7000000003852010ED8A4000E0C
:0608BC00386ED3D7FFD710
:1008D80010EE15F0160E006E010E016EC20EF66EC9
:0E08E800080EF76E000EF86E68EC03F01200BA
:0A08C20032202D205472696D3A00B7
:0A08CC0031202D205472696D3A00AE
:0208D6002500FB
:020000040030CA
:0D000100231F3CFFBD81FF0FC00FE00F402B
:00000001FF
