:1000000095EF01F00000000000EF00F0000000009C
:0A0010000000000000000000F3D71C
:0A001C00210E0D6E0D2EFED712000E
:100026000F0E0C6E470E0D6E0D2EFED70C2EFCD746
:06003600000000001200B2
:06003C00000000001200AC
:1000420043BE02D08A9601D08A8643BC02D08A94EB
:1000520001D08A8443BA02D08A9201D08A8243B8FC
:1000620002D08A9001D08A8029B002D08A8801D039
:100072008A988A8AE2DF8A9A43B602D08A9601D0A7
:100082008A8643B402D08A9401D08A8443B202D0D1
:100092008A9201D08A8243B002D08A9001D08A80AB
:1000A20029B002D08A8801D08A988A8AC6DF8A9AC1
:0C00B20029A002D0B7DF01D0B0DF12009F
:0C00BE00299042C043F0BEDF29801200F0
:1000CA00939A939893909392939493968A9A8A98F0
:1000DA008A968A948A928A90A1DFA0DF9FDF8A8219
:1000EA008A808A8AA6DF8A9A99DF8A8AA2DF8A9A0E
:1000FA0095DF8A8A9EDF8A9A91DF8A908A8A99DFB7
:10010A008A9A8CDF8A8A95DF8A9A8A928A868A8A6A
:10011A0090DF8A9A83DF8A968A808A8A8ADF8A9A15
:10012A008A908A8A86DF8A9A79DF8A8A82DF8A9A1D
:10013A008A808A8A7EDF8A9A71DF8A908A8A79DF40
:10014A008A9A8A868A848A828A808A8A72DF8A9AC4
:06015A0065DF29801200A0
:10016000086A096A100E0C6E01340836093604500C
:10017000085E0550D8A0053C095ED8B007D00450F1
:1001800008260550D8B0053C0926D890003601361F
:060190000C2EEAD712005C
:100196000FD0800E3D6E19D0C00E3D6E16D0940E57
:1001A6003D6E13D0D40E3D6E10D0800E3D6E0DD038
:1001B6003D50010AEEE03D50020AEEE03D50030AD2
:1001C600EEE03D50040AEEE0F0D73E04006E3D50EE
:1001D600002600C03DF000C043F030DF2990416AA0
:1001E60041503F24E96E000E4020EA6EEE520BE0CD
:1001F60041503F24E96E000E4020EA6EEECF42F0F9
:0A0206005BDF412AEDD729801200CA
:100210000F0138813A85396B928080809484808484
:0A0220000E0EC16EAA0EC06E120091
:10022A000900F5CFE6FF0006FBE10106F9E112003D
:10023A0047DF010E436E00DF0C0E436EFDDE010E3A
:10024A003D6E010E3E6E1F0E3F6E000E406E9EDF2B
:10025A00020E3D6E010E3E6E150E3F6E000E406E92
:04026A0095DF12000A
:10026E003A6A050E3A5C0AE23A503824E16E000E04
:10027E003920E26E200EE66E3A2AF3D73A50382431
:10028E00E16E000E3920E26EE66A3A063A503824E4
:10029E003B6E000E39203C6E0A0E046E000E056E8B
:1002AE0036C000F037C001F054DF08C000F009C0BE
:1002BE0001F0300E00263BC0E1FF3CC0E2FF00C063
:1002CE00E6FF0A0E046E000E056E36C000F037C053
:1002DE0001F03FDF00C036F001C037F0000E01180C
:1002EE0002E1000E001801E102D03A06CFD712004B
:1002FE003650000A03E1010EC26E05D03650010AD7
:10030E0002E1390EC26EC2A201D0FDD7C4CF01F0F8
:0C031E00006AC3500012000E0112120011
:10032A00CDEC01F0356A6FDF83DFC282366AE2DF25
:10033A0000C036F001C037F02B0E386E000E396E51
:10034A0091DF3550000A03E1010E2A6E02D0020E37
:10035A002A6E2AC03DF00A0E3E6E2B0E3F6E000E2C
:10036A00406E14DF340E0C6EF10E0D6E0D2EFED79C
:0C037A000C2EFCD700000000D8D7FFD7E5
:10039A0010EE15F0140E006E010E016E860EF66E4A
:0E03AA00030EF76E000EF86E15EC01F0120057
:0A03860032202D205472696D3A00F8
:0A03900031202D205472696D3A00EF
:020000040030CA
:0D000100231F3CFFBD81FF0FC00FE00F402B
:00000001FF
